:020000040800F2
:100000000000012005490008B9120008BB120008D1
:10001000BD120008BF120008C11200080000000055
:10002000000000000000000000000000C3120008F3
:10003000C512000800000000C7120008C91200081D
:100040004D4900084D4900084D4900084D49000838
:100050004D4900084D4900084D4900084D49000828
:100060004D4900084D4900084D4900084D49000818
:100070004D4900084D4900084D4900084D49000808
:100080004D4900084D4900084D4900084D490008F8
:100090004D4900084D4900084D4900084D490008E8
:1000A0004D4900084D4900084D4900084D490008D8
:1000B0004D4900084D4900084D4900084D490008C8
:1000C0004D4900084D4900084D4900084D490008B8
:1000D0004D4900084D4900084D4900084D490008A8
:1000E0004D4900084D4900084D4900084D49000898
:1000F0004D4900084D4900084D4900084D49000888
:100100004D4900084D4900084D4900084D49000877
:100110004D4900084D4900084D4900084D49000867
:100120004D4900084D4900084D4900084D49000857
:1001300000000000000000000000000000000000BF
:1001400000000000000000000000000000000000AF
:10015000000000000000000000000000000000009F
:10016000000000000000000000000000000000008F
:10017000000000000000000000000000000000007F
:10018000000000000000000000000000000000006F
:10019000000000000000000000000000000000005F
:1001A000000000000000000000000000000000004F
:1001B000000000000000000000000000000000003F
:1001C000000000000000000000000000000000002F
:1001D000000000000000000000000000000000001F
:0401E0005FF8E0F1F3
:1001E80081F0004102E000BF83F0004330B54FEAE0
:1001F80041044FEA430594EA050F08BF90EA020F4D
:100208001FBF54EA000C55EA020C7FEA645C7FEADF
:10021800655C00F0E2804FEA5454D4EB5555B8BF02
:100228006D420CDD2C4480EA020281EA030382EA73
:10023800000083EA010180EA020281EA0303362D05
:1002480088BF30BD11F0004F4FEA01314FF4801CD8
:100258004CEA113102D0404261EB410113F0004FEA
:100268004FEA03334CEA133302D0524263EB4303A1
:1002780094EA050F00F0A780A4F10104D5F1200E3F
:100288000DDB02FA0EFC22FA05F2801841F100019A
:1002980003FA0EF2801843FA05F359410EE0A5F16E
:1002A80020050EF1200E012A03FA0EFC28BF4CF09F
:1002B800020C43FA05F3C01851EBE37101F0004555
:1002C80007D54FF0000EDCF1000C7EEB00006EEB62
:1002D8000101B1F5801F1BD3B1F5001F0CD34908EC
:1002E8005FEA30004FEA3C0C04F101044FEA445243
:1002F80012F5800F80F09A80BCF1004F08BF5FEACA
:10030800500C50F1000041EB045141EA050130BDA9
:100318005FEA4C0C404141EB0101013C28BFB1F5BB
:10032800801FE9D291F0000F04BF01460020B1FA06
:1003380081F308BF2033A3F10B03B3F120020CDAD9
:100348000C3208DD02F1140CC2F10C0201FA0CF0B7
:1003580021FA02F10CE002F11402D8BFC2F1200C1C
:1003680001FA02F120FA0CFCDCBF41EA0C019040D2
:10037800E41AA2BF01EB0451294330BD6FEA04041B
:100388001F3C1CDA0C340EDC04F11404C4F1200206
:1003980020FA04F001FA02F340EA030021FA04F318
:1003A80045EA030130BDC4F10C04C4F1200220FA6F
:1003B80002F001FA04F340EA0300294630BD21FAAD
:1003C80004F0294630BD94F0000F83F4801306BF73
:1003D80081F480110134013D4EE77FEA645C18BF67
:1003E8007FEA655C29D094EA050F08BF90EA020FFE
:1003F80005D054EA000C04BF1946104630BD91EAF6
:10040800030F1EBF0021002030BD5FEA545C05D1F8
:100418004000494128BF41F0004130BD14F5800437
:100428003CBF01F5801130BD01F0004545F0FE41AB
:1004380041F470014FF0000030BD7FEA645C1ABFE0
:10044800194610467FEA655C1CBF0B46024650EA17
:10045800013406BF52EA033591EA030F41F4002143
:1004680030BD00BF90F0000F04BF0021704730B5C9
:100478004FF4806404F132044FF000054FF000019E
:1004880050E700BF90F0000F04BF0021704730B55F
:100498004FF4806404F1320410F0004548BF404234
:1004A8004FF000013EE700BF42004FEAE2014FEA89
:1004B80031014FEA02701FBF12F07F4393F07F4F64
:1004C80081F06051704732F07F4208BF704793F067
:1004D8007F4F04BF41F40021704730B54FF460747A
:1004E80001F0004521F000411CE700BF50EA01027D
:1004F80008BF704730B54FF000050AE050EA010226
:1005080008BF704730B511F0004502D5404261EB95
:1005180041014FF4806404F132045FEA915C3FF4D6
:10052800D8AE4FF003025FEADC0C18BF03325FEA73
:10053800DC0C18BF033202EBDC02C2F1200300FA24
:1005480003FC20FA02F001FA03FE40EA0E0021FA49
:1005580002F11444BDE600BF70B54FF0FF0C4CF437
:10056800E06C1CEA11541DBF1CEA135594EA0C0FE9
:1005780095EA0C0F00F0DEF82C4481EA030621EA24
:100588004C5123EA4C5350EA013518BF52EA03355F
:1005980041F4801143F4801338D0A0FB02CE4FF011
:1005A8000005E1FB02E506F00042E0FB03E54FF041
:1005B8000006E1FB03569CF0000F18BF4EF0010E39
:1005C800A4F1FF04B6F5007F64F5407404D25FEA35
:1005D8004E0E6D4146EB060642EAC62141EA5551E8
:1005E8004FEAC52040EA5E504FEACE2EB4F1FD0C2A
:1005F80088BFBCF5E06F1ED8BEF1004F08BF5FEAA8
:10060800500E50F1000041EB045170BD06F0004659
:1006180046EA010140EA020081EA0301B4EB5C0406
:10062800C2BFD4EB0C0541EA045170BD41F48011FE
:100638004FF0000E013C00F3AB8014F1360FDEBF23
:10064800002001F0004170BDC4F10004203C35DAFF
:100658000C341BDC04F11404C4F1200500FA05F382
:1006680020FA04F001FA05F240EA020001F0004223
:1006780021F0004110EBD37021FA04F642EB060199
:100688005EEA430E08BF20EAD37070BDC4F10C04C3
:10069800C4F1200500FA04F320FA05F001FA04F287
:1006A80040EA020001F0004110EBD37041F1000173
:1006B8005EEA430E08BF20EAD37070BDC4F120057E
:1006C80000FA05F24EEA020E20FA04F301FA05F2E6
:1006D80043EA020321FA04F001F0004121FA04F28E
:1006E80020EA020000EBD3705EEA430E08BF20EA5E
:1006F800D37070BD94F0000F0FD101F00046400098
:1007080041EB010111F4801F08BF013CF7D041EA19
:10071800060195F0000F18BF704703F0004652001D
:1007280043EB030313F4801F08BF013DF7D043EAEE
:100738000603704794EA0C0F0CEA135518BF95EAA4
:100748000C0F0CD050EA410618BF52EA4306D1D12B
:1007580081EA030101F000414FF0000070BD50EA4A
:10076800410606BF1046194652EA430619D094EAD4
:100778000C0F02D150EA013613D195EA0C0F05D1BE
:1007880052EA03361CBF104619460AD181EA030112
:1007980001F0004141F0FE4141F470014FF00000CA
:1007A80070BD41F0FE4141F4780170BD70B54FF065
:1007B800FF0C4CF4E06C1CEA11541DBF1CEA1355E5
:1007C80094EA0C0F95EA0C0F00F0A7F8A4EB0504C7
:1007D80081EA030E52EA03354FEA013100F08880BE
:1007E8004FEA03334FF0805545EA131343EA126387
:1007F8004FEA022245EA111545EA10654FEA00263C
:100808000EF000419D4208BF964244F1FD0404F5F4
:10081800407402D25B084FEA3202B61A65EB030550
:100828005B084FEA32024FF480104FF4002CB6EB0D
:10083800020E75EB030E22BFB61A754640EA0C008D
:100848005B084FEA3202B6EB020E75EB030E22BFCD
:10085800B61A754640EA5C005B084FEA3202B6EB0E
:10086800020E75EB030E22BFB61A754640EA9C00CD
:100878005B084FEA3202B6EB020E75EB030E22BF9D
:10088800B61A754640EADC0055EA060E18D04FEA5B
:10089800051545EA16754FEA06164FEAC30343EAFB
:1008A80052734FEAC2025FEA1C1CC0D111F4801FC8
:1008B8000BD141EA00014FF000004FF0004CB6E7C1
:1008C80011F4801F04BF01430020B4F1FD0C88BF60
:1008D800BCF5E06F3FF6AFAEB5EB030C04BFB6EB6B
:1008E800020C5FEA500C50F1000041EB045170BD5E
:1008F8000EF0004E4EEA113114EB5C04C2BFD4EB8B
:100908000C0541EA045170BD41F480114FF0000E0E
:10091800013C90E645EA060E8DE60CEA135594EA8A
:100928000C0F08BF95EA0C0F3FF43BAF94EA0C0F8D
:100938000AD150EA01347FF434AF95EA0C0F7FF402
:1009480025AF104619462CE795EA0C0F06D152EA56
:1009580003353FF4FDAE1046194622E750EA41063A
:1009680018BF52EA43067FF4C5AE50EA41047FF44B
:100978000DAF52EA43057FF4EBAE12E74FF0FF3CB0
:1009880006E000BF4FF0010C02E000BF4FF0010C81
:100998004DF804CD4FEA410C7FEA6C5C4FEA430CFA
:1009A80018BF7FEA6C5C1BD001B050EA410C0CBF49
:1009B80052EA430C91EA030F02BF90EA020F0020AB
:1009C800704710F1000F91EA030F58BF994208BF12
:1009D80090422CBFD8176FEAE37040F001007047CF
:1009E8004FEA410C7FEA6C5C02D150EA013C07D126
:1009F8004FEA430C7FEA6C5CD6D152EA033CD3D071
:100A08005DF8040B704700BF8446104662468C466A
:100A18001946634600E000BF01B5FFF7B7FF00289D
:100A280048BF10F1000F01BD4DF808EDFFF7F4FFC6
:100A38000CBF012000205DF808FB00BF4DF808ED51
:100A4800FFF7EAFF34BF012000205DF808FB00BF74
:100A58004DF808EDFFF7E0FF94BF012000205DF896
:100A680008FB00BF4DF808EDFFF7CEFF94BF01204B
:100A780000205DF808FB00BF4DF808EDFFF7C4FF44
:100A880034BF012000205DF808FB00BF4FEA410C8D
:100A98007FEA6C5C02D150EA013C0AD14FEA430C70
:100AA8007FEA6C5C02D152EA033C02D14FF00000AD
:100AB80070474FF0010070474FEA4102B2F1E0433E
:100AC80024BFB3F5001CDCF1FE5C0DD901F0004C2D
:100AD8004FEAC0024CEA5070B2F1004F40EB83007D
:100AE80008BF20F00100704711F0804F21D113F1A9
:100AF8003872BCBF01F00040704741F480114FEAE2
:100B08005252C2F11802C2F1200C10FA0CF320FA6A
:100B180002F018BF40F001004FEAC1234FEAD32387
:100B280003FA0CFC40EA0C0023FA02F34FEA4303F1
:100B3800CCE77FEA625307D150EA01331EBF4FF07A
:100B4800FE4040F44000704701F0004040F0FE4095
:100B580040F40000704700BF80F0004002E000BF92
:100B680081F0004142001FBF5FEA410392EA030F90
:100B78007FEA226C7FEA236C6AD04FEA1262D2EBDA
:100B88001363C1BFD218414048404140B8BF5B42DF
:100B9800192B88BF704710F0004F40F4000020F078
:100BA8007F4018BF404211F0004F41F4000121F08E
:100BB8007F4118BF494292EA030F3FD0A2F10102D8
:100BC80041FA03FC10EB0C00C3F1200301FA03F116
:100BD80000F0004302D5494260EB4000B0F5000F39
:100BE80013D3B0F1807F06D340084FEA310102F1F8
:100BF8000102FE2A51D2B1F1004F40EBC25008BFAA
:100C080020F0010040EA03007047490040EB000073
:100C1800013A28BFB0F5000FEDD2B0FA80FCACF174
:100C2800080CB2EB0C0200FA0CF0AABF00EBC250A1
:100C380052421843BCBFD0401843704792F0000F8F
:100C480081F4000106BF80F400000132013BB5E7E2
:100C58004FEA41037FEA226C18BF7FEA236C21D058
:100C680092EA030F04D092F0000F08BF08467047BD
:100C780090EA010F1CBF0020704712F07F4F04D18B
:100C8800400028BF40F00040704712F100723CBF9E
:100C980000F50000704700F0004343F0FE4040F4C8
:100CA800000070477FEA226216BF08467FEA236386
:100CB8000146420206BF5FEA412390EA010F40F471
:100CC800800070474FF0000304E000BF10F00043BD
:100CD80048BF40425FEA000C08BF704743F09643A4
:100CE80001464FF000001CE050EA010208BF7047BF
:100CF8004FF000030AE000BF50EA010208BF704746
:100D080011F0004302D5404261EB41015FEA010C5A
:100D180002BF84460146002043F0B64308BFA3F152
:100D28008053A3F50003BCFA8CF2083AA3EBC25334
:100D380010DB01FA02FC634400FA02FCC2F1200253
:100D4800BCF1004F20FA02F243EB020008BF20F08A
:100D58000100704702F1200201FA02FCC2F12002F0
:100D680050EA4C0021FA02F243EB020008BF20EAE5
:100D7800DC7070474FF0FF0C1CEAD0521EBF1CEA13
:100D8800D15392EA0C0F93EA0C0F6FD01A4480EA01
:100D9800010C400218BF5FEA41211ED04FF00063EA
:100DA80043EA501043EA5111A0FB01310CF0004016
:100DB800B1F5000F3EBF490041EAD3715B0040EA3C
:100DC800010062F17F02FD2A1DD8B3F1004F40EB0C
:100DD800C25008BF20F00100704790F0000F0CF0DF
:100DE800004C08BF49024CEA502040EA51207F3AA3
:100DF800C2BFD2F1FF0340EAC250704740F400007E
:100E08004FF00003013A5DDC12F1190FDCBF00F06E
:100E180000407047C2F10002410021FA02F1C2F11C
:100E2800200200FA02FC5FEA310040F1000053EAB8
:100E38004C0308BF20EADC70704792F0000F00F006
:100E4800004C02BF400010F4000F013AF9D040EA0C
:100E58000C0093F0000F01F0004C02BF490011F4A0
:100E6800000F013BF9D041EA0C018FE70CEAD1539E
:100E780092EA0C0F18BF93EA0C0F0AD030F0004C1E
:100E880018BF31F0004CD8D180EA010000F00040D2
:100E9800704790F0000F17BF90F0004F084691F090
:100EA800000F91F0004F14D092EA0C0F01D14202CA
:100EB8000FD193EA0C0F03D14B0218BF084608D193
:100EC80080EA010000F0004040F0FE4040F40000DD
:100ED800704740F0FE4040F4400070474FF0FF0C70
:100EE8001CEAD0521EBF1CEAD15392EA0C0F93EAB7
:100EF8000C0F69D0A2EB030280EA010C49024FEA09
:100F0800402037D04FF0805343EA111143EA1013C1
:100F18000CF000408B4238BF5B0042F17D024FF479
:100F2800000C8B4224BF5B1A40EA0C00B3EB510F54
:100F380024BFA3EB510340EA5C00B3EB910F24BF3D
:100F4800A3EB910340EA9C00B3EBD10F24BFA3EBC2
:100F5800D10340EADC001B0118BF5FEA1C1CE0D18A
:100F6800FD2A3FF650AF8B4240EBC25008BF20F03D
:100F7800010070470CF0004C4CEA50207F32C2BF91
:100F8800D2F1FF0340EAC250704740F400004FF02E
:100F98000003013A37E792F0000F00F0004C02BF5F
:100FA800400010F4000F013AF9D040EA0C0093F029
:100FB800000F01F0004C02BF490011F4000F013B83
:100FC800F9D041EA0C0195E70CEAD15392EA0C0FEB
:100FD80008D142027FF47DAF93EA0C0F7FF470AF23
:100FE800084676E793EA0C0F04D14B023FF44CAF66
:100FF80008466EE730F0004C18BF31F0004CCAD1FB
:1010080030F000427FF45CAF31F000437FF43CAF36
:101018005FE700BF4FF0FF3C06E000BF4FF0010C58
:1010280002E000BF4FF0010C4DF804CD4FEA40023A
:101038004FEA41037FEA226C18BF7FEA236C11D084
:1010480001B052EA530C18BF90EA010F58BFB2EB37
:10105800030088BFC81738BF6FEAE17018BF40F0B7
:10106800010070477FEA226C02D15FEA402C05D16B
:101078007FEA236CE4D15FEA412CE1D05DF8040BF0
:10108800704700BF844608466146FFE70FB5FFF783
:10109800C9FF002848BF10F1000F0FBD4DF808ED3B
:1010A800FFF7F4FF0CBF012000205DF808FB00BF2C
:1010B8004DF808EDFFF7EAFF34BF012000205DF886
:1010C80008FB00BF4DF808EDFFF7E0FF94BF0120D3
:1010D80000205DF808FB00BF4DF808EDFFF7D2FFD0
:1010E80094BF012000205DF808FB00BF4DF808ED13
:1010F800FFF7C8FF34BF012000205DF808FB00BFE0
:1011080042000ED2B2F1FE4F0BD34FF09E03B3EB69
:10111800126209D44FEA002343F0004323FA02F095
:1011280070474FF00000704712F1610F01D1420281
:1011380002D14FF0FF3070474FF00000704700BFFA
:101148000348044B834202D0034B03B1184770474E
:101158007800002078000020000000000548064BB9
:101168001B1AD90F01EBA301491002D0034B03B19D
:101178001847704778000020780000200000000021
:1011880010B5064C237843B9FFF7DAFF044B13B1C7
:101198000448AFF300800123237010BD78000020BD
:1011A800000000004869000808B5054B1BB1054957
:1011B8000548AFF30080BDE80840FFF7CFBF00BF88
:1011C800000000007C0000204869000872B6FEE7B5
:1011D80000B591B02822002106A803F059FE00238B
:1011E80001930293039304930593012206924FF40B
:1011F800803307930A9202220D920E934FF4E01364
:101208000F9306A800F082FA80B90F2301930221F8
:101218000291002303934FF480620492059301A87E
:1012280000F0B4FC20B911B05DF804FBFFF7CEFF65
:10123800FFF7CCFF00B599B05422002103A803F0B2
:1012480027FE184B0393184B049300F011FAFFF78D
:10125800BFFF01F07DFC01F007FD01F0B5FC13486C
:1012680003F0DCFA01F0ECFF03F0C2FA03A803F084
:10127800BBF9039A0498014651F8043B1468D2F864
:1012880004E09268EC4640684968ACE803002046F0
:10129800714601F0DDFFADF8140003A802F0DCFA96
:1012A800E4E700BF5401002060010020EC000020AA
:1012B800FEE7FEE7FEE7FEE7FEE770477047704788
:1012C80008B500F0E7F908BD82B00E4B9A6942F004
:1012D80001029A619A6902F001020092009ADA69A1
:1012E80042F08052DA61DB6903F080530193019B7D
:1012F800054A536823F0E06343F00073536002B07B
:10130800704700BF001002400000014010B50446BD
:101318000268136923F44053C1680B43136183685F
:101328000269134342691A430168CB6823F4B05336
:1013380023F00C031343CB600268536923F4407312
:1013480081690B4353610268134B9A4220D000F025
:10135800D9FC024602EB820202EB820263689B0020
:10136800B2FBF3F20D48A0FB02314909642303FBE9
:1013780011231B013233A0FB03035B0903F0F002C6
:1013880002EB011203F00F03216813448B6010BDB8
:1013980000F0C8FC0246DDE7003801401F85EB512C
:1013A8002DE9F84305460F4616469946DDF8208094
:1013B8002B681C6837EA04040CBF01240024B442DB
:1013C8001FD1B8F1FF3FF3D0B8F1000F05D000F0FE
:1013D8006DF9A0EB09004045EAD92A68D36823F4DF
:1013E800D073D3602A68536923F001035361202323
:1013F80085F83D3085F83E30002385F83C300320E1
:1014080000E00020BDE8F88358B310B5044690F812
:101418003D300BB3242384F83D302268D36823F48D
:101428000053D3602046FFF771FF2268136923F445
:10143800904313612268536923F02A035361226899
:10144800D36843F40053D36000202064202384F839
:101458003D3084F83E3010BD80F83C3001F01EFC71
:10146800D8E7012070472DE9F04182B01E4690F878
:101478003D30DBB2202B54D104460D46904600295E
:1014880053D0002A53D090F83C30012B51D001237F
:1014980080F83C3000230364212380F83D3000F0BD
:1014A80005F90746A4F82480A4F82680A368B3F5B4
:1014B800805F05D04FF00008002384F83C3012E02C
:1014C800236913B14FF00008F6E7A8460025F3E7B3
:1014D80038F8023B2268C3F308035360E28C92B2E7
:1014E800013A92B2E284E38C9BB273B100963B4618
:1014F800002280212046FFF753FFE0B9002DE7D0F6
:1015080015F8012B23685A60E8E700963B4600224D
:1015180040212046FFF744FF78B9202384F83D3066
:1015280000E0022002B0BDE8F0810120FAE70120C6
:10153800F8E70220F6E70320F4E70320F2E72DE9B5
:10154800F04182B01E4690F83E30DBB2202B5CD1D1
:1015580004460D46904600295BD0002A5BD090F8DF
:101568003C30012B59D0012380F83C300023036420
:10157800222280F83E20036300F098F80746A4F87A
:101588002C80A4F82E80A368B3F5805F05D04FF0B7
:101598000008002384F83C3017E0236913B14FF0AA
:1015A8000008F6E7A8460025F3E723685B68C3F35D
:1015B800080328F8023B03E023685B682B700135B9
:1015C800E28D92B2013A92B2E285E38D9BB2BBB151
:1015D80000963B46002220212046FFF7E1FEF0B9A5
:1015E800002DE2D0A368B3F5805FE5D013B9236975
:1015F800002BE1D023685B6803F07F032B70DEE7E4
:10160800202384F83E30002000E0022002B0BDE82C
:10161800F0810120FAE70120F8E70220F6E703202D
:10162800F4E7000010B504460E4B1A784FF47A73AD
:10163800B3FBF2F30C4A1068B0FBF3F000F0F2FCD5
:1016480068B90F2C01D901200AE0002221464FF089
:10165800FF3000F0AFFC054B1C60002000E00120CB
:1016680010BD00BF0000002008000020040000207A
:1016780008B5074A136843F010031360032000F00D
:1016880087FC0F20FFF7CEFFFFF71EFE002008BDE6
:1016980000200240034A1168034B1B780B44136077
:1016A800704700BF9400002000000020014B18681C
:1016B800704700BF9400002038B50446FFF7F6FFD6
:1016C8000546B4F1FF3F02D0044B1B781C44FFF7DA
:1016D800EDFF401BA042FAD338BD00BF0000002038
:1016E80082B0084B1B68084AA2FB03235B0A00FB75
:1016F80003F3019300BF019B5A1E0192002BF9D1FD
:1017080002B0704708000020D34D6210002800F096
:10171800F18170B582B00446036813F0010F2CD034
:10172800994B5B6803F00C03042B1DD0964B5B6848
:1017380003F00C03082B12D06368B3F5803F41D047
:10174800002B55D103F1804303F504331A6822F4C2
:1017580080321A601A6822F480221A6037E08A4BB5
:101768005B6813F4803FE7D0874B1B6813F4003F96
:1017780003D06368002B00F0BF81236813F0020FC9
:1017880075D0814B5B6813F00C0F5FD07E4B5B68A4
:1017980003F00C03082B54D02369002B00F08A8037
:1017A8007A4B01221A60FFF781FF0546764B1B68CA
:1017B80013F0020F75D1FFF779FF401B0228F5D906
:1017C80003209EE1704A136843F480331360636812
:1017D80043B3FFF76BFF05466B4B1B6813F4003FE1
:1017E800CBD1FFF763FF401B6428F5D9032088E1BC
:1017F800B3F5A02F09D0644B1A6822F480321A601E
:101808001A6822F480221A60E1E703F18043A3F505
:101818003C331A6842F480221A601A6842F4803213
:101828001A60D4E7FFF742FF0546574B1B6813F4CD
:10183800003FA2D0FFF73AFF401B6428F5D90320E8
:101848005FE1514B5B6813F4803FA5D14E4B1B6899
:1018580013F0020F03D02369012B40F04F814A4A4D
:10186800136823F0F803616943EAC103136023682E
:1018780013F0080F33D0A369002B5CD0434B01222F
:10188800C3F88024FFF712FF05463F4B5B6A13F04D
:10189800020F21D1FFF70AFF401B0228F5D90320C8
:1018A8002FE1394A136823F0F803616943EAC10359
:1018B8001360DCE7354B00221A60FFF7F7FE054698
:1018C800314B1B6813F0020FD1D0FFF7EFFE401B1E
:1018D8000228F5D9032014E10120FFF701FF23684E
:1018E80013F0040F00F09680274BDB6913F0805F3C
:1018F80034D1254BDA6942F08052DA61DB6903F0B2
:1019080080530193019B0125214B1B6813F4807FB1
:1019180026D0E368012B3DD0002B53D103F180433F
:1019280003F504331A6A22F001021A621A6A22F0D5
:1019380004021A6233E0154B0022C3F88024FFF733
:10194800B5FE0546104B5B6A13F0020FC7D0FFF7D0
:10195800ADFE401B0228F5D90320D2E00025D3E7CD
:101968000B4A136843F480731360FFF79FFE064623
:10197800074B1B6813F4807FCBD1FFF797FE801BC2
:101988006428F5D90320BCE0001002400000424260
:10199800007000405F4A136A43F001031362E36872
:1019A80033B3FFF783FE06465A4B1B6A13F0020F48
:1019B8002FD1FFF77BFE801B41F288339842F3D981
:1019C80003209EE0052B09D0524B1A6A22F001022F
:1019D8001A621A6A22F004021A62E0E74D4B1A6A88
:1019E80042F004021A621A6A42F001021A62D6E749
:1019F800FFF75CFE0646474B1B6A13F0020F08D040
:101A0800FFF754FE801B41F288339842F3D9032034
:101A180077E0E5B9E369002B72D03E4A526802F0DC
:101A28000C02082A56D0022B17D03B4B00221A660C
:101A3800FFF73CFE0446374B1B6813F0007F47D086
:101A4800FFF734FE001B0228F5D9032059E0314A7C
:101A5800D36923F08053D361DCE72F4B00221A6649
:101A6800FFF724FE05462B4B1B6813F0007F06D0BA
:101A7800FFF71CFE401B0228F5D9032041E0236A2A
:101A8800B3F5803F1AD023494B6823F47413226AB4
:101A9800606A024313434B601F4B01221A66FFF72B
:101AA80005FE04461B4B1B6813F0007F0ED1FFF7A1
:101AB800FDFD001B0228F5D9032022E0154A5368D2
:101AC80023F40033A1680B435360DCE7002018E0DF
:101AD800002016E0012B16D00E4B5B6803F4803112
:101AE800226A914211D103F47013626A93420ED1B3
:101AF800002006E001207047012002E0012000E0FC
:101B0800002002B070BD0120FBE70120F9E70120A9
:101B1800F7E700BF001002400000424286B0174BB2
:101B28000FCB0DF1180C0CE90F0040F20123ADF8B2
:101B38000430134B5B6803F00C02082A02D01148EA
:101B480006B07047C3F3834218326A4412F8100C87
:101B580013F4803F0DD00A4B5B68C3F3404318333E
:101B68006B4413F8143C074A02FB00F0B0FBF3F097
:101B7800E6E7054B03FB00F0E2E700BF60690008F9
:101B88000010024000127A0000093D00002800F011
:101B9800A08070B50D460446524B1B6803F007033E
:101BA8008B420BD24F4A136823F007030B43136091
:101BB800136803F007038B4240F08D80236813F00D
:101BC800020F17D013F0040F04D0474A536843F4A8
:101BD800E0635360236813F0080F04D0424A536847
:101BE80043F460535360404A536823F0F003A168FC
:101BF8000B435360236813F0010F31D06368012B46
:101C080020D0022B25D0384A126812F0020F64D077
:101C180035494A6822F0030213434B60FFF746FD3B
:101C28000646314B5B6803F00C036268B3EB820F26
:101C380016D0FFF73BFD801B41F288339842F0D95C
:101C4800032045E0284A126812F4003FE0D1012041
:101C58003EE0254A126812F0007FD9D1012037E012
:101C6800204B1B6803F00703AB420AD91D4A1368CF
:101C780023F007032B431360136803F00703AB42F9
:101C88002DD1236813F0040F06D0174A536823F4A4
:101C9800E063E1680B435360236813F0080F07D033
:101CA800114A536823F46053216943EAC10353601E
:101CB800FFF734FF0C4B5B68C3F303130B4AD35C89
:101CC800D8400B4B18600B4B1868FFF7ABFC002093
:101CD80070BD012070470120FAE70120F8E70120D4
:101CE800F6E700BF002002400010024074690008B7
:101CF8000800002004000020014B1868704700BF4E
:101D08000800002008B5FFF7F7FF044B5B68C3F332
:101D18000223034AD35CD84008BD00BF001002402C
:101D28008469000808B5FFF7E7FF044B5B68C3F355
:101D3800C223034AD35CD84008BD00BF001002404C
:101D48008469000870B582B00024A446B0E0874DCD
:101D5800AB4210D007D9864DAB420CD005F5803583
:101D6800AB4208D013E0A5F58015AB4203D005F5CA
:101D78007025AB4207D18B68002B62D0012B5BD05A
:101D88004261082403E0A5F58015AB42F3D0BEF10B
:101D9800FF0F58D80646BEF1FF0F56D84FEA8C02FF
:101DA80033680F25954023EA050304FA02F213432A
:101DB80033604B6813F0805F78D06E4B9A6942F0BD
:101DC80001029A619B6903F001030193019B4FEAA9
:101DD8009C02951C684B53F825600CF00305AD0078
:101DE8000F23AB4026EA0306644B984233D003F531
:101DF8008063984200F0988003F58063984200F071
:101E0800958003F58063984200F0928003F5806323
:101E1800984200F08F8003F58063984219D006231A
:101E28001AE0CC68B3E7CC680434B0E7CC6808346F
:101E3800ADE7CC680C34AAE702610824A7E70024C0
:101E4800A5E70424A3E7061DA5E7ACF10802920064
:101E5800A6E7052300E00023AB4033430232464D9A
:101E680045F822304B6813F4803F65D0444A136824
:101E780043EA0E0313604B6813F4003F62D0404AF4
:101E8800536843EA0E0353604B6813F4801F5FD016
:101E98003B4A936843EA0E0393604B6813F4001FB0
:101EA8005CD0374AD36843EA0E03D3600CF1010CC7
:101EB8000B6833FA0CF257D0012202FA0CF203EA4B
:101EC800020E32EA0303F1D14B68122B3FF63FAF03
:101ED800122B3FF65CAF01A555F823F07F1D0008D3
:101EE8002B1E0008351E0008471E0008971D000815
:101EF800971D0008971D0008971D0008971D0008EA
:101F0800971D0008971D0008971D0008971D0008D9
:101F1800971D0008971D0008971D0008971D0008C9
:101F28002F1E00083B1E0008012395E7022393E7B4
:101F3800032391E704238FE7114A136823EA0E036A
:101F4800136098E70E4A536823EA0E0353609BE731
:101F58000B4A936823EA0E0393609EE7084AD36806
:101F680023EA0E03D360A1E702B070BD000022107F
:101F7800000031100010024000000140000801403C
:101F8800000401400AB1016170470904016170470A
:101F9800074AD36823F4E0631B041B0C000200F417
:101FA800E060034343F0BF6343F40033D3607047FA
:101FB80000ED00E000B5194BDB68C3F30223C3F161
:101FC800070CBCF1040F28BF4FF0040C03F1040EFA
:101FD800BEF1060F18D9033B4FF0FF3E0EFA0CFC7A
:101FE80021EA0C0199400EFA03FE22EA0E020A4386
:101FF80000280BDB1201D2B200F1604000F561400D
:1020080080F800235DF804FB0023E5E700F00F00EB
:102018001201D2B2024B1A54F4E700BF00ED00E0FF
:1020280014ED00E00138B0F1807F0BD24FF0E023CF
:102038005861054AF02182F8231000209861072290
:102048001A6170470120704700ED00E0704703688F
:102058005A6912F4806F01D1002070476FF48062D2
:102068005A6100230363202280F83D2080F83E3027
:10207800026C42F00402026480F83C300120704790
:102088002DE9F04107460D4690461E4624E0FFF72D
:102098000DFB069BC01AB04200D8EEB900233B6383
:1020A800202287F83D2087F83E303A6C42F0200223
:1020B8003A6487F83C3001201EE03B689C6925EAB9
:1020C800040C1FFA8CFCBCFA8CFC4FEA5C1CE04543
:1020D80011D1B6F1FF3FDAD1C5F30743012BECD19B
:1020E8003B685B6925EA030C1FFA8CFCBCFA8CFC84
:1020F8004FEA5C1CEBE70020BDE8F0812DE9F041D8
:1021080005460E46174698463DE01A6842F40072A6
:102118001A602B686FF480625A6100232B632022B7
:1021280085F83D2085F83E302A6C42F004022A6486
:1021380085F83C30012034E0FFF7B8FAA0EB08003E
:10214800B84200D8FFB900232B63202285F83D2030
:1021580085F83E302A6C42F020022A6485F83C302B
:1021680001201EE02B689C6926EA0404A4B2003C06
:1021780018BF0124A4B12B685A6912F4806FC4D126
:10218800B7F1FF3FD8D1C6F30743012BEAD12B683B
:102198005C6926EA0404A4B2003C18BF0124E9E7FC
:1021A8000020BDE8F08170B504460D461646236848
:1021B8005B6913F0800F1CD12046FFF748FFD0B9A8
:1021C800B5F1FF3FF3D0FFF771FA801BA84201D8A1
:1021D800002DECD100232363202284F83D2084F8CD
:1021E8003E30226C42F02002226484F83C30012008
:1021F80000E0002070BD0120FCE700002DE9F0435D
:1022080085B004460D4691461F46DDF830800D9E88
:102218000368196841F480711960009643460022EA
:102228004FF00111FFF72CFF60B9236805F0FE0598
:102238001D613346424626492046FFF75FFF68B1D5
:10224800012008E023681B6813F4807F02D04FF454
:1022580000732364032005B0BDE8F08300230393D3
:1022680023685A6903929B690393039B324641464C
:102278002046FFF798FF30B9012F0FD123685FFA86
:1022880089F61E61E7E7236C042B01D00120E2E701
:102298002268136843F400731360F7E723684FEA72
:1022A80019221A61324641462046FFF77CFF20B9C1
:1022B80023685FFA89F61E61CDE7236C042B01D0F1
:1022C8000120C8E72268136843F400731360F7E736
:1022D800020001002DE9F04784B004460D46164679
:1022E80099460C9FDDF834800268136843F48063D4
:1022F80013600368196841F480711960CDF8008093
:102308003B4600224FF00111FFF7BAFE70B95FFAA1
:1023180085FA236805F0FE051D6143463A464149A2
:102328002046FFF7EBFE68B1012008E023681B6830
:1023380013F4807F02D04FF400732364032004B0A9
:10234800BDE8F0870023039323685A6903929B69C9
:102358000393039B424639462046FFF724FF80B982
:10236800B9F1010F18D12368F6B21E614246394609
:102378002046FFF718FF68B3236C042B24D00120F4
:10238800DDE7236C042B01D00120D8E7226813680D
:1023980043F400731360F7E72368320A1A61424670
:1023A80039462046FFF7FFFE18B92368F6B21E61CA
:1023B800DCE7236C042B01D00120C0E722681368F6
:1023C80043F400731360F7E72268136843F400735B
:1023D8001360D4E72268136843F480731360CDF860
:1023E80000803B4600224FF001112046FFF748FECF
:1023F80068B922684AF00103136143463A4609491D
:102408002046FFF77BFE002899D0012097E7236834
:102418001B6813F4807F02D04FF4007323640320F9
:102428008DE700BF0200010070B504460D46164650
:1024380023685B6913F0040F1CD12046FFF707FEE1
:10244800D0B9B5F1FF3FF3D0FFF730F9801BA842B0
:1024580001D8002DECD100232363202284F83D20ED
:1024680084F83E30226C42F02002226484F83C302A
:10247800012000E0002070BD0120FCE770B5054692
:102488000C4616462B68596911F0400F29D1596935
:1024980011F0100F15D1FFF709F9801BA04201D8E0
:1024A800002CEFD100232B63202285F83D2085F8EE
:1024B8003E302A6C42F020022A6485F83C30012024
:1024C80070BD6FF010025A6100232B63202285F83B
:1024D8003D2085F83E302A6C2A6485F83C3001207E
:1024E800EEE70020ECE70000002800F0CC8070B593
:1024F800044690F83D30002B77D0242384F83D30F3
:102508002268136823F0010313602268136843F4F8
:10251800004313602268136823F400431360FFF735
:10252800F1FB62685A4B9A4264D85A4B98428CBF66
:1025380000230123002B40F0A8805749A1FB00315C
:102548008B0C25686A6822F03F0242EA91426A6071
:1025580021680A6A22F03F0266684D4DAE424FD8A4
:10256800013313430B622168CA6922F44F4222F0F7
:10257800FF026568464B9D424CD8431E6D00B3FB75
:10258800F5F3013340F6FC70034278D0C3F30B0334
:102598001A43CA6121680B6823F0C003E269206A04
:1025A800024313430B6021688B6823F4034323F031
:1025B800FF032269E068024313438B602168CB68FC
:1025C80023F0FF036269A06902431343CB602268CA
:1025D800136843F00103136000202064202384F86B
:1025E8003D30206384F83E0070BD80F83C3000F038
:1025F80009FB82E7294B98428CBF0023012399E706
:102608004FF4967505FB03F3254DA5FB03539B0972
:102618000133A6E7A668BEB9431E05EB450CB3FB1C
:10262800FCF30133C3F30B03B3FA83F35B0943BB36
:10263800C6B9431E05EB4505B3FBF5F30133C3F3F8
:102648000B0343F40043A3E7431E05EB850C0CEB97
:102658008C0CB3FBFCF30133C3F30B03B3FA83F322
:102668005B09E4E7431E05EB850505EB8505B3FB30
:10267800F5F30133C3F30B0343F4404388E7042322
:1026880086E7012384E7012070470120ACE700BFFB
:10269800A08601007F841E0083DE1B43FF083D00E7
:1026A800D34D62102DE9F04383B004460F4690469F
:1026B80099460C9EFEF7FAFF054694F83D00C0B215
:1026C800202803D0022003B0BDE8F0830095192329
:1026D80001224B492046FFF7D3FC002840F08980AF
:1026E80094F83C30012B00F08680012384F83C30BC
:1026F80023681A6812F0010F03D11A6842F0010228
:102708001A602268136823F400631360212384F895
:102718003D30402384F83E30002323640A9B6362E3
:10272800BDF82C306385638D2385364BE3620195B4
:1027380000964B46424639462046FFF75FFD002883
:102748005BD1238D002B35D02A4631462046FFF732
:102758002AFD20BB626A236812781A61626A531CD8
:102768006362218D013989B22185638D9BB2013B5A
:102778009BB263852368586910F0040FE1D00029E3
:10278800DFD052781A61636A01336362238D013B9B
:102798002385638D9BB2013B9BB26385D1E7236C94
:1027A800042B01D001208EE72268136843F40073DC
:1027B8001360F7E72A4631462046FFF735FE50B149
:1027C800236C042B01D001207DE72268136843F4B1
:1027D80000731360F7E72268136843F4007313600B
:1027E800202384F83D30002384F83E3084F83C30C0
:1027F80069E7022067E7022065E7012063E700BF79
:10280800020010000000FFFF2DE9F04389B00446E4
:102818000F4690469946129E00230793FEF746FFFF
:10282800054694F83D00C0B2202804D00227384657
:1028380009B0BDE8F083009519230122814920469B
:10284800FFF71EFC002840F0728194F83C30012B01
:1028580000F06F81012384F83C3023681A6812F075
:10286800010F03D11A6842F001021A602268136846
:1028780023F400631360222384F83D30402384F856
:102888003E3000232364109B6362BDF844306385A7
:10289800638D23856C4BE362019500964B46424657
:1028A80039462046FFF716FD0746002840F04381C9
:1028B800238D5BB9039323685A6903929A6903923B
:1028C800039A1A6842F400721A60EDE0012B0FD0E7
:1028D800022B21D02268136843F48063136000231D
:1028E800069323685A6906929B690693069BDBE068
:1028F8002268136823F48063136072B6002304937C
:1029080023685A6904929A690492049A1A6842F4EC
:1029180000721A6062B6C7E02268136843F4006365
:10292800136072B60023059323685A6905929A6961
:102938000592059A1A6822F480621A6062B6B3E0BA
:102948002A4631462046FFF799FD002840F0F580D9
:1029580023681A69636A1A70636A01336362238D94
:10296800013B2385638D9BB2013B9BB263859BE052
:1029780000953346002235492046FFF781FB0028A1
:1029880040F0DF802268136823F48063136072B616
:1029980023681A69636A1A70636A01336362238D54
:1029A800013B2385638D9BB2013B9BB26385284B1A
:1029B8001B68DB08274AA2FB03231B0A03EB8303DC
:1029C800C3EBC3030793079B013B0793079B002BAC
:1029D80028D023685A6912F0040FF4D01A6842F418
:1029E80000721A6023681A69636A1A70636A01338D
:1029F8006362238D013B2385638D9BB2013B9BB2B0
:102A0800638562B623681A69636A1A70636A013358
:102A18006362238D013B2385638D9BB2013B9BB28F
:102A2800638541E02363202284F83D2084F83E300A
:102A3800226C42F02002226462B684F83C300127FE
:102A4800F5E600BF020010000000FFFF04000100CF
:102A58000800002089B5F8142A4631462046FFF7B9
:102A68000DFD00286FD123681A69636A1A70626ABB
:102A7800531C6362238D013B2385638D9BB2013B0D
:102A88009BB263852368596911F0040F0CD01B6948
:102A98005370636A01336362238D013B2385638D21
:102AA8009BB2013B9BB26385238D002B36D0032B51
:102AB800D2D8012B3FF444AF022B7FF459AF0095D5
:102AC8003346002221492046FFF7DAFA002836D19A
:102AD80072B62268136843F40073136023681A6996
:102AE800636A1A70636A01336362238D013B23852D
:102AF800638D9BB2013B9BB2638562B623681A69FA
:102B0800636A1A70636A01336362238D013B23850C
:102B1800638D9BB2013B9BB26385C5E7202384F894
:102B28003D30002384F83E3084F83C307FE60227AD
:102B38007DE602277BE6012779E6012777E601276C
:102B480075E6012773E6012771E600BF040001005E
:102B580030B589B000240494059406940794184B62
:102B68009A6942F004029A619A6902F00402019299
:102B7800019A9A6942F480729A619A6902F48072A1
:102B88000292029A9A6942F008029A619B6903F0DC
:102B980008030393039B0B4D22464FF4806128469C
:102BA800FFF7F0F94FF4806304930123059306942B
:102BB8000223079304A92846FFF7C4F809B030BDDB
:102BC800001002400020014008B50B480B4B036081
:102BD8000B4B436000238360C3604FF48042026163
:102BE80043618361C3610362FFF77EFC00B908BDDE
:102BF800FEF7ECFAFBE700BF980000200054004005
:102C0800A086010010B586B00023029303930493B5
:102C180005930268114B9A4201D006B010BD104CC2
:102C2800A36943F00803A361A36903F008030093B1
:102C3800009BC0230293122303930323059302A945
:102C48000848FFF77FF8E36943F40013E361E36999
:102C580003F400130193019BDFE700BF0054004019
:102C680000100240000C014008B50A480A4B0360F6
:102C78004FF4E133436000238360C36003610C2297
:102C880042618361C361FEF7BFFB00B908BDFEF76F
:102C98009DFAFBE7EC0000200038014010B586B033
:102CA800002302930393049305930268174B9A42F7
:102CB80001D006B010BD03F558439A6942F480422A
:102CC8009A619A6902F480420092009A9A6942F0E5
:102CD80004029A619B6903F004030193019B4FF47A
:102CE800007302930223039303230593084C02A95C
:102CF8002046FFF727F84FF48063029300230393DD
:102D0800049302A92046FFF71DF8D2E700380140D6
:102D18000008014008B500F077FAC0B208BD08B550
:102D280000F058FA08BD000010B504468020FFF7EF
:102D3800F1FF012C0CD000F0FE018020FFF7EFFF1F
:102D4800054801F017FF30210020FFF7E8FF10BD0C
:102D580040F00101C9B2F0E78C69000810B50446DB
:102D6800722000F02DFA0120FFF7DEFF014B1C70E6
:102D7800002010BD3001002010B504468020FFF768
:102D8800C9FF012C05D000F0FD018020FFF7C7FF27
:102D980010BD40F00201C9B2F7E710B50446802023
:102DA800FFF7B8FF012C05D000F0EF018020FFF7F6
:102DB800B6FF10BD40F01001C9B2F7E708B53021E1
:102DC8000020FFF7ACFF01210846FFF7A8FF00210C
:102DD8000220FFF7A4FF00210320FFF7A0FF002136
:102DE8000420FFF79CFF42210520FFF798FF0021F0
:102DF8000620FFF794FF00210720FFF790FF5021DE
:102E08000820FFF78CFF00210920FFF788FF002129
:102E18000A20FFF784FF00210B20FFF780FF202105
:102E28000C20FFF77CFF04210D20FFF778FF00211D
:102E38000E20FFF774FF30210F20FFF770FF0121EC
:102E48001020FFF76CFF50211120FFF768FF0021C9
:102E58001220FFF764FF06211320FFF760FF08BD6B
:102E680008B500210846FFF75AFF00210120FFF7A7
:102E780056FF00210220FFF752FF40210320FFF7F1
:102E88004EFF02210420FFF74AFF00210520FFF72B
:102E980046FF10210620FFF742FF03210720FFF716
:102EA8003EFF50210820FFF73AFF10210920FFF7C5
:102EB80036FF03210A20FFF732FF00210B20FFF71E
:102EC8002EFF00210C20FFF72AFF00210D20FFF71D
:102ED80026FF24210E20FFF722FF00210F20FFF7F5
:102EE8001EFF00211020FFF71AFF50211120FFF7C5
:102EF80016FF00211220FFF712FF06211320FFF70B
:102F08000EFF08BD08B5A320FFF704FF10F0400F1F
:102F180001D0012008BD0020FCE730B583B005468C
:102F280040006B38C0B2FFF7F5FE84B2ADF804403C
:102F380005F14B00400000F0FE00FFF7EBFE80B209
:102F4800ADF8060044EA0024A4B2322000F034F9B7
:102F5800204603B030BD10B584B004460020FFF70A
:102F6800DCFFADF804000120FFF7D7FFADF806003D
:102F78000220FFF7D2FFADF808000320FFF7CDFFCE
:102F8800ADF80A000420FFF7C8FFADF80C000520D3
:102F9800FFF7C3FFADF80E0001AB07CB20606160FF
:102FA800A260204604B010BD10B584B004460020CD
:102FB800FFF7B3FFADF804000120FFF7AEFFADF84F
:102FC80006000220FFF7A9FFADF808000320FFF76D
:102FD800A4FFADF80A000420FFF79FFFADF80C002E
:102FE8000520FFF79AFFADF80E0001AB07CB206074
:102FF8006160A260204604B010BD10B50446BE2032
:10300800FFF788FE014614B940F00401C9B2012C4B
:1030180003D0BE20FFF783FE10BD01F0FB01F8E7E7
:1030280008B501468120FFF77AFE08BD10B5040AED
:10303800C1B2CA20FFF773FE2146CB20FFF76FFE0F
:1030480010BD08B501460A2800D90A21AA20FFF7B1
:1030580066FE08BD10B50446A920FFF75BFE0146D1
:10306800012C06D00CB901F0EF01A920FFF757FE9B
:1030780010BD40F01001C9B2F4E710B504460120B4
:10308800FFF7E8FF7020FFF745FE0146012C0CD042
:10309800032C11D034B17020FFF741FE0020FFF758
:1030A800D9FF10BD00F0FC01F5E720F0030149B29B
:1030B80041F00101C9B2EEE740F00301C9B2EAE705
:1030C80010B50446A920FFF725FE00F0EF01A9205E
:1030D800FFF725FE0020FFF74FFE1021AF20FFF776
:1030E8001EFE84B1012C11D00120FFF756FE124BB1
:1030F8001B78012B0DD09BB10120FFF73DFE0E4B35
:103108001B78A3B110BDFFF759FEEDE7FFF7A8FE46
:10311800EAE70020FFF771FF0120FFF7AEFFEBE7BA
:103128000020FFF7AAFFE7E7012000F045F8FFF7C6
:10313800E9FE0028F8D0E5E73001002038B505465B
:103148000120FFF787FF7020FFF7E4FD0446742095
:10315800FFF7E0FD012D0AD144F00804E4B221464E
:103168007020FFF7DCFD0020FFF774FF38BD04F086
:10317800F70400F07F017420FFF7D1FDEFE738B5C1
:1031880005460C4601B90124013CE4B2132C00D9D0
:1031980013240120FFF75EFF012D0AD02146742079
:1031A800FFF7BDFD642000F007F80020FFF752FF8D
:1031B80038BD44F08004F1E708B5FEF77DFA08BD94
:1031C800024B01221A70024B18707047310100201F
:1031D8003201002000B587B0024600238DF8143074
:1031E8008DF81410202302930123019305A900915F
:1031F800034909780348FFF755FA07B05DF804FB5F
:10320800320100209800002000B587B00246002354
:103218008DF81430084B1978202302930123019369
:1032280005A8009019440548FFF7EEFA9DF8140028
:1032380007B05DF804FB00BF3201002098000020B1
:1032480008B57220FFF7BCFF002008BD0000000091
:1032580082B02DE9F04F95B014AC04E907001F9334
:10326800BDF84400FDF70EF982468B46D6A3D3E994
:103278000023FDF771F904460D46BDF84600FDF739
:1032880001F902460B46CDE90023D1A3D3E9002377
:10329800FDF762F902460B4620462946FCF7A6FFD1
:1032A80004460D46BDF84800FDF7ECF802460B460B
:1032B800CDE90223C8A3D3E90023FDF74DF902465F
:1032C8000B4620462946FCF791FF04460D46BDF8FB
:1032D8004A00FDF7D7F802460B46CDE90423C0A300
:1032E800D3E90023FDF738F902460B462046294664
:1032F800FCF77CFF04460D46BDF87C00FDF7C2F8DC
:1033080002460B46CDE90623B7A3D3E90023FDF710
:1033180023F902460B4620462946FCF767FF044678
:103328000D46BDF87E00FDF7ADF802460B46CDE927
:103338000823AFA3D3E90023FDF70EF902460B4695
:1033480020462946FCF752FF04460D46BDF880008A
:10335800FDF798F802460B46CDE90A23A6A3D3E960
:103368000023FDF7F9F802460B4620462946FCF7EC
:103378003DFF04460D46BDF88200FDF783F802467E
:103388000B46CDE90C239EA3D3E90023FDF7E4F80F
:1033980002460B4620462946FCF726FF04460D4602
:1033A800BDF88400FDF76EF802460B46CDE90E2302
:1033B80095A3D3E90023FDF7CFF802460B46204634
:1033C8002946FCF711FF04460D46BDF88600FDF7B7
:1033D80059F8804689468EA3D3E90023FDF7BCF847
:1033E80002460B4620462946FCF7FEFEFDF764FB25
:1033F8000546A94B186088A3D3E9002350465946CF
:10340800FDF7AAF806460F4685A3D3E90023DDE9B0
:103418000001FDF7A1F802460B4630463946FCF795
:10342800E5FE06460F4680A3D3E90023DDE9020145
:10343800FDF792F802460B4630463946FCF7D6FEB1
:1034480006460F467AA3D3E90023DDE90401FDF718
:1034580083F802460B4630463946FCF7C7FE064657
:103468000F4675A3D3E90023DDE90601FDF774F8DB
:1034780002460B4630463946FCF7B8FE06460F466C
:103488006FA3D3E90023DDE90801FDF765F80246DB
:103498000B4630463946FCF7A9FE06460F466AA396
:1034A800D3E90023DDE90A01FDF756F802460B4689
:1034B80030463946FCF79AFE06460F4664A3D3E920
:1034C8000023DDE90C01FDF747F802460B463046BC
:1034D8003946FCF789FE06460F465FA3D3E9002369
:1034E800DDE90E01FDF738F802460B46304639464D
:1034F800FCF77AFE06460F4659A3D3E90023404657
:103508004946FDF729F802460B4630463946FCF78E
:103518006BFEFDF7D1FA0446604B186052A3D3E95D
:10352800002350465946FDF717F806460F4650A3A4
:10353800D3E90023DDE90001FDF70EF802460B464A
:1035480030463946FCF752FE06460F464AA3D3E9F1
:103558000023DDE90201FCF7FFFF02460B46304677
:103568003946FCF743FE06460F4645A3D3E9002338
:10357800DDE90401FCF7F0FF02460B463046394608
:10358800FCF734FE06460F463FA3D3E90023DDE9E6
:103598000601FCF7E1FF02460B4630463946FCF7C8
:1035A80025FE06460F463AA3D3E90023DDE90801C4
:1035B800FCF7D2FF02460B4630463946FCF716FEAA
:1035C80006460F466CE000BF25AFCE31207BD93FC1
:1035D8007DD0B359F5B9F43F82397AFCDEA6D73FDE
:1035E800B8239C16BCE8BB3F84D382177D05E73F10
:1035F8006E3480B74082FC3F75029A081B9EF13FEB
:1036080090149161156FA43FEF552B137EA9D13FFC
:10361800639CBF098508983F10069E7B0F978C3FD7
:1036280055F65D11FC6FC53F1BF5108DEE20CE3FA2
:10363800D7A3703D0AD7F63FABCFD556EC2FFE3F48
:103648001283C0CAA145F23F6EC0E78711C2DD3FB1
:10365800B3075A8121AB9B3FA81DFE9AAC51CF3FBF
:103668007F4DD6A88768943FA4DFBE0E9C33FF3FEA
:1036780036CD3B4ED1D1194076E09C11A53D064090
:103688003C6BB75D68AEC73F04560E2DB29DC33F75
:103698007A8D5DA27A6BB83F340100203801002092
:1036A80057A3D3E90023DDE90A01FCF755FF0246D9
:1036B8000B4630463946FCF799FD06460F4652A39D
:1036C800D3E90023DDE90C01FCF746FF02460B466F
:1036D80030463946FCF78AFD06460F464CA3D3E927
:1036E8000023DDE90E01FCF737FF02460B463046A2
:1036F8003946FCF779FD06460F4647A3D3E9002370
:1037080040464946FCF728FF02460B4630463946F4
:10371800FCF76AFDFDF7D0F90646454B18602146CF
:103728002846FDF71FFA01463046FDF71BFA074603
:103738000021FDF7B3FC002860D139462846FDF783
:10374800CDFB05463B4B186039462046FDF7C6FBC6
:103758000446394B186039463046FDF7BFFB374BF6
:1037680018602846FCF7A0FE2DA3D3E90023FCF738
:103778003BFD06460F462046FCF796FE02460B46E2
:1037880029A1D1E90001FCF72FFD02460B4630467E
:103798003946FDF70BF8FDF78FF90446284B1860FA
:1037A8002849FDF7E7FA01462046FDF7E3FA014606
:1037B8002046FDF7DFFA054623492046FDF7DAFAE9
:1037C80001462046FDF7D6FA01462846FDF7CAF914
:1037D80005461E492046FDF7CDFA01462846FDF765
:1037E800C1F91B49FDF7BEF91A4B1860FDF788FCB3
:1037F80080B215B0BDE8F04F02B070470020F8E77E
:1038080098FA7953910ABB3FC39E76F86BB2B63FDC
:10381800E3C798BB9690E33FA04FE449D235833F76
:10382800736891ED7C3FD53FF163CC5D4BC8C73FD2
:103838003C010020480100204C01002050010020DC
:10384800440100200080DA43001061450078D54526
:103858000068AC45400100202DE9F04FADF2DC5D79
:1038680005460690482200210DF5B26001F010FBD4
:103878004FF4107422460021D4A801F009FB224617
:10388800002144A801F004FB2024224600213CA882
:1038980001F0FEFA2246002134A801F0F9FA224686
:1038A80000212CA801F0F4FA2246002124A801F0F6
:1038B800EFFA224600211CA801F0EAFA224600216C
:1038C80014A801F0E5FA224600210CA801F0E0FA5C
:1038D800B5F8088041F28833984540F244814FF4A6
:1038E8007A7090FBF8F0FDF7F1F90446A8F59C53BF
:1038F800083B9BB2B3F5FA6F00F237810146FDF73A
:1039080039FA05462146FDF735FAFCF7CDFDB6A391
:10391800D3E90023FCF720FE06460F462846FCF7AD
:10392800C3FDB3A3D3E90023FCF716FE02460B46FA
:1039380030463946FCF75AFC06460F462046FCF747
:10394800B3FDADA3D3E90023FCF706FE02460B4600
:1039580030463946FCF74AFCA9A3D3E90023FCF713
:1039680045FCFDF7A9F8FCF79FFD04460D4600222B
:10397800C54BFCF7F1FD02460B4620462946FCF7ED
:10398800EBFD06460F46A0A3D3E9002320462946AF
:10399800FCF7E2FD02460B4630463946FCF726FCAA
:1039A8009BA3D3E90023FCF71FFCFDF785F88046AD
:1039B80099A3D3E9002320462946FCF7CDFD02460A
:1039C8000B4697A1D1E90001FCF70EFC06460F460D
:1039D8004046FCF769FD82468B4693A3D3E9002352
:1039E800FCF7BAFD02460B4630463946FCF7FEFBAB
:1039F800804689468EA3D3E9002320462946FCF752
:103A0800ABFD8DA3D3E90023FCF7F0FB06460F4678
:103A18008BA3D3E9002350465946FCF79DFD024687
:103A28000B4630463946FCF7DFFB06460F46024692
:103A38000B4640464946FCF7B9FEFDF73DF880467F
:103A480081A3D3E9002320462946FCF785FD0246D9
:103A58000B467FA1D1E90001FCF7C6FB04460D46E1
:103A68007DA3D3E9002350465946FCF775FD02466D
:103A78000B4620462946FCF7B9FB32463B46FCF785
:103A880095FEFDF719F8074600242DE17F4B33F822
:103A9800146008FB06F0FDF719F901467C48FDF7AC
:103AA8001DFA05463046FCF7DDFC0022794B01F093
:103AB8007DFF6BA3D3E90023FCF74EFD06460F46B6
:103AC8004FF07E512846FDF74BF8FCF7EDFC024617
:103AD8000B4630463946FCF769FEFCF7EDFF0DF55D
:103AE800BB6303EB840343F8440C0134E4B2082CB1
:103AF800CCD90023069EF363336473640024082C36
:103B080000F2F580A31C06EB83035D68624B53F853
:103B180024102846FDF72EF96049FDF72BF90146D8
:103B2800F06BFDF71FF8F0635D4B53F8241028463F
:103B3800FDF720F95949FDF71DF90146306CFDF7ED
:103B480011F83064574B53F824102846FDF712F942
:103B58005249FDF70FF90146706CFDF703F87064E0
:103B68000134E4B2CBE70024C1E7A8F5DA53193BE6
:103B78009BB244F24F62934200F20B850146FDF777
:103B8800F9F805462146FDF7F5F8FCF78DFC36A354
:103B9800D3E90023FCF7E0FC06460F462846FCF76D
:103BA80083FC33A3D3E90023FCF7D6FC02460B467B
:103BB80030463946FCF71AFB06460F462046FCF706
:103BC80073FC2DA3D3E90023FCF7C6FC02460B4681
:103BD80030463946FCF70AFB29A3D3E90023FCF752
:103BE80005FBFCF769FFBEE621B07268916D12C053
:103BF800E78C28ED0DBE07401EE1B4E0455FB93FF4
:103C08006BF294D5743DCF3FF6285C8FC2F5064021
:103C18009A9999999999D13FA5BDC1172653FC3F07
:103C280039B4C876BE9FF5BF304CA60A46A51740E2
:103C3800840D4FAF9465D03F3D9B559FABAD983FEA
:103C480092CB7F48BF7DE73F1AC05B2041713F4060
:103C5800B81E85EB51B89E3FF8C264AA60043E4086
:103C680000000060737336C0228E75711B0D00C092
:103C7800598638D6C56DFE3F930035B56CADCF3F3C
:103C8800F302ECA35357CE3F000008C00C6B0008AA
:103C9800A5BB6B3C000014C0A06A00080000A0414E
:103CA800C46A0008E86A0008AE4B04EB440203EB60
:103CB800820653F8225041467068FDF75BF80146CA
:103CC8002846FCF74FFF05463946B068FDF752F81D
:103CD80001462846FCF746FF0DF5BB6303EB84035A
:103CE80043F8440C0134E4B2082CDDD901E7DDF8CF
:103CF8001880D8F83C70D8F8406031463846FCF750
:103D080031FFD8F844502946FCF72CFF04460146F9
:103D18003846FDF7E3F80090C8F83C0021463046E5
:103D2800FDF7DCF80290C8F8400021462846FDF768
:103D3800D5F80490C8F844004FF0000AD0E0A31C5E
:103D4800069A02EB83035F68874B53F824B0594601
:103D58003846FDF70FF80AEBC402844B53F822608B
:103D68003146FDF707F88249FDF704F801460AEBEA
:103D7800CA0344AA02EBC305686BFCF7F3FE686349
:103D88007C4B53F8249049463846FCF7F3FF01462C
:103D98003046FCF7EFFF7649FCF7ECFF0146A86BCD
:103DA800FCF7E0FEA863744B53F82480414638467C
:103DB800FCF7E0FF01463046FCF7DCFF6C49FCF7F6
:103DC800D9FF0146E86BFCF7CDFEE8630DF5BB6350
:103DD80003EB840353F8445C29465846FCF7CAFFB2
:103DE80001463046FCF7C6FF6149FCF7C3FF0146B0
:103DF8004FEACA0B0BEB0A07D4AB03EBC707786B88
:103E0800FCF7B0FE786329464846FCF7B3FF014645
:103E18003046FCF7AFFF5649FCF7ACFF0146B86BDC
:103E2800FCF7A0FEB86329464046FCF7A3FF01460D
:103E38003046FCF79FFF4E49FCF79CFF0146F86BA4
:103E4800FCF790FEF8630134E4B2082C7FF677AFF4
:103E58004FEACA060AEBCA0344AA02EBC304D4F821
:103E68003490D4F8388041464846FCF77BFEE76B2F
:103E78003946FCF777FE054601464846FDF72EF819
:103E8800606329464046FDF729F8A063294638466D
:103E9800FDF724F8E06306EB0A04D4AB03EBC40493
:103EA800D4F83490D4F8388041464846FCF75AFE96
:103EB800E76B3946FCF756FE054601464846FDF7CE
:103EC8000DF8606329464046FDF708F8A0632946C7
:103ED8003846FDF703F8E0630AF101035FFA83FA55
:103EE800BAF1070F01D80024AFE70024082C45D801
:103EF8000DF5BB6303EB840353F8445C1A4B53F88A
:103F080024102846FCF736FF1949FCF733FF014611
:103F1800DDF8C405FCF726FECDF8C405154B53F8AB
:103F280024102846FCF726FF1149FCF723FF014619
:103F3800DDF8C805FCF716FECDF8C8050E4B53F89A
:103F480024102846FCF716FF0949FCF713FF014621
:103F5800DDF8CC05FCF706FECDF8CC050134E4B25B
:103F6800C4E700BF206B0008A06A00088C6B00083B
:103F78000000A041C46A0008E86A0008DDF8C455DA
:103F8800DDF8C84521462846FCF7ECFDDDF8CC7580
:103F98003946FCF7E7FD064601462846FCF79EFF32
:103FA8000546CDF8C40531462046FCF797FF044680
:103FB800CDF8C80531463846FCF790FF0646CDF8DF
:103FC800CC054FF08141DDF800804046FCF7D2FE79
:103FD8000746B149DDF808904846FCF7CBFE014694
:103FE8004046FCF7BFFD8046AC490498FCF7C2FE8A
:103FF80001464046FCF7B6FD804601463846FCF7C8
:104008006DFF8346069F7863A5494846FCF7B2FED4
:104018004146FCF763FF8046B8634FF0814128466C
:10402800FCF7A8FE07469C492046FCF7A3FE01467C
:104038002846FCF797FD054698493046FCF79AFE56
:1040480001462846FCF78EFD054601463846FCF732
:1040580045FF06460A90CDF8BC0591492046FCF775
:1040680089FE2946FCF73AFF05460B90CDF8C005B6
:1040780031465846FCF774FD0146FCF77BFE0446C2
:1040880029464046FCF76CFD0146FCF773FE0146E5
:104098002046FCF767FDFCF707FA01F0F5FCFCF792
:1040A8000BFDFCF701FA74A3D3E90023FCF7E4FC49
:1040B800002840F0718200245BE0E60004EBC403B2
:1040C80044AA02EBC3056F6B4FF081413846FCF7F9
:1040D80051FE8146D5F838A06F495046FCF74AFE94
:1040E80001463846FCF73EFD07466C49E86BFCF78D
:1040F80041FE01463846FCF735FD0746014648466D
:10410800FCF7ECFEE86266495046FCF733FE394698
:10411800FCF7E4FE28633519D4AB03EBC5056F6BD8
:104128004FF081413846FCF725FE8146D5F838A086
:1041380059495046FCF71EFE01463846FCF712FD69
:1041480007465649E86BFCF715FE01463846FCF76A
:1041580009FD074601464846FCF7C0FEE86250499B
:104168005046FCF707FE3946FCF7B8FE28630134D1
:10417800E4B2072CA1D959464FF08140FCF7F0FC76
:10418800044648494046FCF7F5FD01462046FCF741
:10419800E7FC4146FCF7A2FE0790DDF81890C9F845
:1041A80048004046FCF780F904460D4634A3D3E99D
:1041B8000023FCF7D1F934A3D3E90023FCF716F860
:1041C80006460F465846FCF76FF931A3D3E900239A
:1041D800FCF7C2F902460B4630463946FCF704F8AC
:1041E80022462B46FCF7E2FAFCF766FC0890C9F871
:1041F8004C00DDF8288041464FF08140FCF7B0FCC8
:10420800044628490B9D2846FCF7B4FD0146204684
:10421800FCF7A6FC2946FCF761FE0990CDF8D0050D
:104228002846FCF741F904460D4615A3D3E90023B7
:10423800FCF792F914A3D3E90023FBF7D7FF06464E
:104248000F464046FCF730F911A3D3E90023FCF7E9
:1042580083F902460B4630463946FBF7C5FF22462E
:104268002B46FCF7A3FAFCF727FC0090CDF8D40501
:104278004FF0000862E000BFAED85F764F1E763F71
:104288008716D9CEF753FB3F4260E5D022DBD93FF2
:104298001904560E2DB2F73F00007041000040404F
:1042A8000000C040000020414FEAC80908EBC804DC
:1042B80044AB03EBC404D4F82CA051464FF0814022
:1042C800FCF74EFC0646256BC3492846FCF752FD11
:1042D80001463046FCF744FC2946FCF7FFFD206404
:1042E8002846FCF7E1F804460D46ADA3D3E90023C0
:1042F800FCF732F9ACA3D3E90023FBF777FF0646B6
:104308000F465046FCF7D0F8A9A3D3E90023FCF7E1
:1043180023F902460B4630463946FBF765FF22462D
:104328002B46FCF743FAFCF7C7FBC14444AB03EB4D
:10433800C903586408F101085FFA88F8B8F1070F53
:10434800B2D94FF0000BDDF800A07AE00799099880
:10435800FCF7C4FDFCF7A8F802460B46CDE900239C
:1043680091A3D3E90023FCF7F7F806460F460BEBB9
:10437800CB0444AB03EBC404206CFCF795F80A4665
:104388000146CDE902121346024630463946FCF78B
:10439800E3F889A3D3E90023FBF728FF06460F4675
:1043A80008995046FCF79AFD80464FF08141FCF78A
:1043B800E1FCD4F844904946FCF7DCFCFCF774F8BF
:1043C80002460B4630463946FBF70EFFCDE904019D
:1043D80077A3D3E90023DDE90001FCF7BDF8024625
:1043E8000B46DDE90201FCF7B7F875A3D3E9002312
:1043F800FBF7FCFE06460F4649464046FCF7BAFC6A
:10440800FCF752F802460B4630463946FBF7ECFEFD
:1044180006460F4602460B46DDE90401FCF7C6F9DD
:10442800FCF74AFBE06232463B4667A1D1E900014E
:10443800FCF7BCF9FCF740FB20630BF1010B5FFABA
:104448008BFBBBF1070F81D90024DDF82880DDF84C
:104458002C903BE04FF082472CAB43F82470E600E9
:1044680004EBC403D4AA02EBC3054146E86AFCF78F
:1044780077FB5A49FCF77EFC1CAB43F824004946FD
:10448800286BFCF76DFB5549FCF774FC0CAB43F843
:10449800240034AB43F82470264444AB03EBC6062F
:1044A8004146F06AFCF75CFB4C49FCF763FC24AB23
:1044B80043F824004946306BFCF752FB4749FCF7A8
:1044C80059FC14AB43F824000134E4B2072CC1D9D9
:1044D8000024002600274AE034AB53F824102CAB04
:1044E80053F82400FCF73CFB0146FCF743FC054667
:1044F80024AB53F824101CAB53F82400FCF730FB12
:104508000146FCF737FC01462846FCF72BFB05461D
:1045180014AB53F824100CAB53F82400FCF720FB21
:104528000146FCF727FC01462846FCF71BFBFBF776
:10453800BBFF01F0A9FAFCF7BFFA3CAB43F8240033
:10454800FBF7B2FF22A3D3E90023FCF705F80246E4
:104558000B4600202249FBF747FE02460B46304631
:104568003946FBF743FE06460F460134E4B2072CF2
:10457800B2D900224FF07F5330463946FBF7ECFFA3
:10458800FCF79AFA069B186500200DF2DC5DBDE881
:10459800F08F4FF0FF30F8E74FF0FF30F5E700BF3E
:1045A8008716D9CEF753FB3F4260E5D022DBD93FCF
:1045B8001904560E2DB2F73F5839B4C876BE2540B7
:1045C800F853E3A59B84304014AE47E17A141640B3
:1045D8006666666666661240000020410000D042AA
:1045E800000059400000000070B584B00446002067
:1045F800FEF766FD25686846FEF7ADFC0099019A4E
:10460800029B29606A60AB606D4800F0B3FA2368CA
:104618006C4D1988284600F047FA6B4800F0AAFA52
:1046280023685988284600F03FFA684800F0A2FA43
:1046380023689988284600F037FA654800F09AFA06
:104648002368D988284600F02FFA0120FEF738FDA4
:1046580066686846FEF7A8FC0099019A029B3160DB
:104668007260B3605B4800F085FA63681988284671
:1046780000F01AFA584800F07DFA6368598828460D
:1046880000F012FA554800F075FA636899882846D0
:1046980000F00AFA524800F06DFA6368D988284693
:1046A80000F002FA4F4800F065FA63681989284655
:1046B80000F0FAF94C4800F05DFA63685989284619
:1046C80000F0F2F9494800F055FA4FF4FA70FEF795
:1046D80073FD25682888FBF7D5FE37A3D3E90023A7
:1046E800FCF764F8FCF7E8F9E0606888FBF7CAFEB5
:1046F80031A3D3E90023FCF759F8FCF7DDF9206171
:10470800A888FBF7BFFE2CA3D3E90023FCF74EF8DB
:10471800FCF7D2F96061E888FBF7B4FE26A3D3E979
:104728000023FCF743F8FCF7C7F9A06166683088F6
:10473800FBF7A8FE20A3D3E90023FCF737F8FCF722
:10474800BBF9E0617088FBF79DFE1BA3D3E900234A
:10475800FCF72CF8FCF7B0F92062B088FBF792FE62
:1047680015A3D3E90023FCF721F8FCF7A5F960624B
:10477800F088FBF787FE10A3D3E90023FCF716F8AF
:10478800FCF79AF9A0622889FBF77CFE0AA3D3E913
:104798000023FCF70BF8FCF78FF9E0626889FBF758
:1047A80071FE05A3D3E90023FCF700F8FCF784F9B0
:1047B800206304B070BD00BF0000000030237141C9
:1047C800AC690008C4690008CC690008E4690008FD
:1047D800FC690008146A00082C6A0008446A00088A
:1047E8005C6A0008746A00087C6A0008846A000829
:1047F80008B50020FEF7B2FA6420FEF711FC40F27B
:10480800E730FEF713FC0620FEF71BFC0020FEF73E
:1048180095FC0A210120FEF7B2FC08BD08B5054B3E
:104828001860054B1868002302221946806800F0BA
:10483800A9F908BD6C01002064000020022801D8F5
:104848000120704708B500F071FB092303600020C0
:1048580008BD000010B5013801280AD814464FF0E9
:10486800FF3392B207480068FCF7FDFD40B92046C7
:1048780010BD00F05BFB092303604FF0FF30F7E742
:104888000520F5E76C010020022801D800207047B8
:1048980008B500F04BFB092303604FF0FF3008BD5B
:1048A80008B500F043FB092303604FF0FF3008BD53
:1048B80008B548B94FF0FF33012208480068FCF7F3
:1048C8003EFE40B9012008BD00F030FB092303601B
:1048D8004FF0FF30F7E70520F5E700BF6C01002037
:1048E80008B5022804D84FF400534B60002008BDD7
:1048F80000F01CFB09230360F8E700000C480D4991
:104908000D4A002302E0D458C4500433C4188C4222
:10491800F9D30A4A0A4C002301E013600432A24288
:10492800FBD3FDF793FB00F007FBFCF783FC704714
:104938000000002078000020E86C000878000020C3
:10494800C0020020FEE70000002310B50446C0E9BD
:104958000033C0E90433836081814366C281836187
:10496800194608225C3000F093FA054B2462636212
:10497800044BA362044BE362044B236310BD00BFE6
:10498800E94C00080B4D0008434D0008674D00082E
:10499800024A0349034800F069B800BF0C00002030
:1049A800215800081800002041680C4B10B59942A6
:1049B800044601D000F030FFA168094B994202D0AB
:1049C800204600F029FFE168064B994204D02046B2
:1049D800BDE8104000F020BF10BD00BF70010020EE
:1049E800D80100204002002010B50B4B0B4C0C4A9C
:1049F80020461A6004210022FFF7A6FF04F1680090
:104A080001220921FFF7A0FF04F1D0000222BDE82E
:104A180010401221FFF798BFA80200207001002063
:104A280099490008014800F0ABBA00BFB102002064
:104A3800014800F0A6BA00BFB102002010B5044634
:104A4800FFF7F0FF236A1BB1BDE81040FFF7F0BF86
:104A5800044B2362044B1B68002BF5D1FFF7C4FFFE
:104A6800F2E700BFB1490008A80200202DE9F84389
:104A78000746884614460026D4E90195B9F101098C
:104A880005D52468002CF7D13046BDE8F883AB89FA
:104A9800012B07D9B5F90E30013303D02946384622
:104AA800C04706436835E9E70FB407B5064904ABC4
:104AB800086853F8042B8168019300F07DFB03B06C
:104AC8005DF804EB04B0704764000020036A70B519
:104AD80005460E4684680BB9FFF7B0FF636EDB0727
:104AE80005D4A389980502D4A06D00F049FAA389DA
:104AF800190713D523698BB1013EA36816F8011F66
:104B0800013BA360E9B9002B2EDA22460A21284688
:104B180000F029F9013007D00A2507E02146284688
:104B280000F05EF90028E7D04FF0FF35636EDA0732
:104B380005D4A3899B0502D4A06D00F022FA28466B
:104B480070BD002B04DAA2699A4206DC0A2904D057
:104B580023685A1C22601970CFE72246284600F0C5
:104B680002F90130C9D1DFE70A2523685A1C2260FF
:104B78001D70DBE7024B01461868FFF7A7BF00BFAF
:104B8800640000202DE9F7431D46544B04461F6876
:104B98000E46904627B13B6A13B93846FFF74EFFD9
:104BA800B8F1020F06D0B8F1010F00F29480002D81
:104BB800C0F29180636EDA0705D4A3899B0502D4FD
:104BC800A06D00F0DDF92146384600F025FE616B46
:104BD80041B104F14403994202D0384600F0D2F9B9
:104BE800002363630023A3616360A389180603D5C8
:104BF8003846216900F0C6F9A389B8F1020F23F4F9
:104C08004A6323F00303A3815FD001AB6A462146C0
:104C1800384600F029FEA3891843A0812DBB009DCA
:104C2800284600F0F7F90646002850D1DDF8009034
:104C3800A9453ED14FF0FF350022A26004F147029A
:104C4800226022610122B4F90C306261626E43F085
:104C58000203D107A38104D49B0502D4A06D00F000
:104C680090F9284603B0BDE8F083002ED8D03B6AFF
:104C780013B93846FFF7E2FEB8F1010F08BFA38960
:104C8800C4E9046504BF43F00103A381A389266036
:104C980013F008021DD0DA0741BF00226D42A2605E
:104CA800A56158BFA560656E15F00105D4D0002533
:104CB800D7E7484600F0AEF906460028BAD0A389DF
:104CC8004D4643F08003A381D1E70025B4E7A94608
:104CD800F5E7A260E7E74FF0FF35C2E76400002080
:104CE80010B50C46B1F90E1000F0FCF80028ABBF67
:104CF800636DA3891B1823F48053ACBF6365A3813C
:104D080010BD2DE9F0411F468B890546DB050C4691
:104D1800164605D502230022B1F90E1000F0D0F88E
:104D2800A389324623F48053A38128463B46B4F92D
:104D38000E10BDE8F04100F0E7B810B50C46B1F927
:104D48000E1000F0BDF8431CA38915BF606523F45D
:104D5800805343F48053A38118BFA38110BDB1F9D8
:104D68000E1000F09DB8F8B50E461446054618B169
:104D7800036A0BB9FFF762FEA369A360A3891A0748
:104D880025D523691BB323682269F6B2981A63698B
:104D98003746834204DC2146284600F03DFDE0B951
:104DA800A368013BA36023685A1C22601E706269D5
:104DB800431C9A4204D0A389DB0706D50A2E04D1E6
:104DC8002146284600F028FD38B93846F8BD214666
:104DD800284600F005F80028D5D04FF0FF37F4E753
:104DE80038B52A4B054618680C4618B1036A0BB942
:104DF800FFF724FEA389B4F90C20180722D4D9069A
:104E080007D409232B6042F040034FF0FF30A38101
:104E180034E0580712D5616B41B104F1440399425B
:104E280002D0284600F0AEF800236363A38923F07C
:104E38002403A3810023636023692360A38943F0CB
:104E48000803A38123694BB9A38903F42073B3F53D
:104E5800007F03D02146284600F02BFDA089B4F935
:104E68000C2010F001030AD00023A36063695B42A1
:104E7800A361236943B910F08000C4D138BD81070C
:104E880058BF6369A360F4E70020F7E764000020D7
:104E980003460244934200D1704703F8011BF9E727
:104EA80038B50023054D044608462B60FFF7ECFC97
:104EB800431C02D12B6803B1236038BDAC0200202B
:104EC80038B50446084611460022054D2A601A46A0
:104ED800FFF7E6FC431C02D12B6803B1236038BD01
:104EE800AC02002038B50446084611460022054D9C
:104EF8002A601A46FFF7DCFC431C02D12B6803B179
:104F0800236038BDAC02002038B504460846114677
:104F18000022054D2A601A46FFF79CFC431C02D16B
:104F28002B6803B1236038BDAC020020014B186820
:104F3800704700BF6400002070B500260C4D0D4C72
:104F4800641BA410A64209D101F0FAFC00260A4D00
:104F58000A4C641BA410A64205D170BD55F8043B49
:104F680098470136EEE755F8043B98470136F2E7D3
:104F7800E06C0008E06C0008E06C0008E46C0008D5
:104F88007047704738B50546002940D051F8043CB1
:104F98000C1F002BB8BFE41800F0DAF81C4A13689D
:104FA80033B9636014602846BDE8384000F0D6B8CD
:104FB800A34208D9206821188B4201BF19685B6891
:104FC80009182160EDE71A465B680BB1A342FAD9CC
:104FD80011685018A0420BD1206801445018834230
:104FE8001160E0D118685B68084410605360DAE724
:104FF80002D90C232B60D6E7206821188B4201BF09
:1050080019685B680918216063605460CBE738BD94
:10501800B4020020024B0146186800F023B800BF14
:105028006400002070B50E4E0C463168054611B973
:1050380000F09EFC30602146284600F099FC431C95
:105048000AD0C41C24F00304A04207D0211A284621
:1050580000F08EFC013001D14FF0FF34204670BDC6
:10506800B80200202DE9F041CD1C25F003050835D4
:105078000C2D38BF0C25002D074601DBA94205D9A8
:105088000C2300263B603046BDE8F0812F4E00F02F
:105098005FF833681C4644BB29463846FFF7C2FF11
:1050A800431C04464FD134682646002E42D1002CBA
:1050B80043D023683146384604EB030800F058FC17
:1050C80080453AD123680335ED1A25F003050835E4
:1050D8000C2D38BF0C2538462946FFF7A3FF0130B1
:1050E8002BD023682B4423600EE02268521B1ED469
:1050F8000B2A16D96119A342256018BF5960636845
:1051080008BF316062514B60384604F10B0600F06D
:1051180025F826F00706231DF21AB4D09B1BA350CE
:10512800B1E76268A3420CBF32605A60ECE72346DD
:105138006468B0E734467668B7E70C2338463B60C6
:1051480000F00CF89FE72560DEE700BFB4020020FE
:105158000148FFF715BF00BFB00200200148FFF764
:1051680010BF00BFB0020020936810B4013B002BB1
:10517800936007DA9469A34201DB0A2902D110BCC3
:10518800FFF7F1BD1368581C10601970084610BC71
:105198007047F8B506460F461446D518AC4201D1FB
:1051A800002007E03A46304614F8011BFFF7DCFF01
:1051B800431CF3D1F8BD00002DE9F04F0D4614460D
:1051C800984606469DB018B1036A0BB9FFF736FC3E
:1051D8006B6ED90705D4AB899A0502D4A86DFFF781
:1051E800CFFEAB891B0701D52B699BB929463046F1
:1051F800FFF7F6FD70B16B6EDC0704D54FF0FF309A
:105208001DB0BDE8F08FAB899805F7D4A86DFFF7FE
:10521800B8FEF3E70023099320238DF829303023C3
:105228004FF00109CDF80C80DFF8AC818DF82A30F9
:1052380023469A4613F8012B0AB1252AF9D1BAEB6D
:10524800040B0BD05B46224629463046FFF7A1FFE8
:10525800013000F0A980099A5A4409929AF800305E
:10526800002B00F0A18000234FF0FF32CDE9052389
:105278000AF1010A049307938DF853301A935446A0
:10528800052214F8011B544800F082FB049AD8B98F
:10529800D10644BF20238DF85330130744BF2B2376
:1052A8008DF853309AF800302A2B15D05446002038
:1052B8004FF00A0C079A214611F8013B303B092BA5
:1052C8004DD9B0B1079214E0A0EB080309FA03F333
:1052D8001343A2460493D2E7039B191D1B6803914D
:1052E800002BBBBF5B4242F0020207930793B8BF93
:1052F800049223782E2B0CD163782A2B34D1039B6C
:1053080002341A1D1B680392002BB8BF4FF0FF33FD
:105318000593DFF8C8A003225046217800F038FB37
:1053280038B14022049BA0EB0A00824013430134A9
:10533800049314F8011B062229488DF8281000F060
:1053480027FB00283FD0274B1BBB039B073323F0C9
:10535800070308330393099B3B44099368E70C460A
:1053680001200CFB0232A6E700234FF00A0C194675
:1053780001340593204610F8012B303A092A03D945
:10538800002BC6D00591C4E7044601230CFB01217C
:10539800F0E703AB00932A463046134B04A9AFF35A
:1053A80000800746781CD6D16B6ED90705D4AB8927
:1053B8009A0502D4A86DFFF7E4FDAB895B063FF5BB
:1053C8001DAF09981CE703AB00932A463046064BED
:1053D80004A900F07DF8E4E7AC6C0008B26C0008A2
:1053E800B66C0008000000009B5100082DE9F0474A
:1053F800164699468A680B6907469342B8BF134612
:10540800336091F843200C46DDF820800AB101335F
:1054180033602368990642BF3368023333602568D6
:1054280015F0060506D104F1190AE36832689B1ADB
:10543800AB422BDC94F84320131E226818BF0123CB
:10544800920630D44946384604F14302C047013039
:1054580023D02368226903F00603042B14BF002518
:1054680033684FF0000608BFE56804F11A0408BF66
:10547800ED1A54F8123C08BF25EAE5759342C4BFFB
:105488009B1AED18B5421AD1002008E001235246B4
:1054980049463846C047013003D14FF0FF30BDE8D8
:1054A800F0870135C1E73020E11881F843005A1C24
:1054B80094F845102244023382F84310C2E70123CE
:1054C800224649463846C0470130E6D00136D9E77A
:1054D8002DE9FF470F7E9146782F80460C469A4665
:1054E8000C9D01F1430207D8622F0AD8002F00F063
:1054F800D580582F00F0C18004F1420584F842702D
:105508003AE0A7F16303152BF6D801A151F823F06F
:105518007155000885550008015500080155000817
:105528000155000801550008855500080155000877
:105538000155000801550008015500088B56000860
:10554800B1550008455600080155000801550008E6
:10555800AD56000801550008B1550008015500086E
:10556800015500084D5600082B681A1D1B682A6053
:1055780004F1420584F842300123A0E020682B683A
:10558800070603F10401296001D51E6803E04606F9
:10559800FBD5B3F90060002E03DA2D23764284F898
:1055A80043300A23594812E02B682068191D2960E6
:1055B800050601D51E6802E04106FBD51E886F2F3F
:1055C8000CBF08230A235148002184F8431065685A
:1055D800002DA8BF2168A560A4BF21F004012160A7
:1055E8000EB9002D4BD01546B6FBF3F103FB11673E
:1055F800C75D05F8017D3746BB420E46F4D9082B36
:105608000BD12368DE0708D5236961689942DEBF9C
:10561800302305F8013C05F1FF35521B22614B464A
:1056280021464046CDF800A003AAFFF7DFFE01306F
:105638004AD14FF0FF3004B0BDE8F087236843F04B
:10564800200323607827324884F845702368296846
:105658001F0651F8046B02D45F0648BFB6B2DF07D5
:1056680048BF43F02003296048BF23601EB9236860
:1056780023F0200323601023A6E72448E4E7154617
:10568800BDE72B682668181D6169286035061B6808
:1056980001D5196002E07006FBD519800023154674
:1056A8002361BCE72B6800211A1D2A601D68626807
:1056B800284600F06DF908B1401B606063682361FB
:1056C800002384F84330AAE72A464946404623691E
:1056D800D0470130ADD023689B0713D4E068039B03
:1056E8009842B8BF1846A6E70123324649464046C5
:1056F800D04701309DD00135E36803995B1AAB426E
:10570800F2DCEBE7002504F11906F5E7BD6C0008AB
:10571800CE6C00088A89F8B5054610070C4657D4A0
:105728004B68002B04DC0B6C002B01DC0020F8BD5F
:10573800E66A002EFAD0002312F480522F68216AFC
:105748002B6032D0606DA3895A0705D56368C01AEB
:10575800636B0BB1236CC01A00230246E66A284625
:10576800216AB047431CA38906D129681D292BD873
:10577800284A0A41D60727D4002262602269D90440
:10578800226004D5421C01D12B6803B96065616BA6
:105798002F600029CAD004F14403994202D0284658
:1057A800FFF7F0FB00206063C1E701232846B047FC
:1057B800411CC8D12B68002BC5D01D2B01D0162B3E
:1057C80001D12F60B2E7A38943F04003A381AEE77C
:1057D8000F69002FAAD0930718BF00230E6808BFCF
:1057E8004B69F61B0F608B60002E9FDD33463A46EF
:1057F8002846216AD4F828C0E047002806DCA38997
:105808004FF0FF3043F04003A38190E70744361A76
:10581800EAE700BFFEFFBFDF38B50B6905460C4657
:1058280013B90025284638BD18B1036A0BB9FFF72C
:1058380005F9B4F90C30002BF3D0626ED00704D40C
:10584800990502D4A06DFFF79BFB28462146FFF778
:1058580061FF636E0546DA07E4D4A3899B05E1D4AA
:10586800A06DFFF78EFBDDE770B50C46B1F90E10A1
:10587800154600291E4696B00CDAA389002113F0BC
:10588800800F0CBF4FF480634023002031602B60F1
:1058980016B070BD6A4600F049F80028EDDB0199A2
:1058A80001F47041A1F50053594259414FF4806306
:1058B800EBE78B8973B59D0706460C4607D504F1BF
:1058C8004703236023610123636102B070BD6A4608
:1058D80001ABFFF7C9FF009905463046FFF7C2FB49
:1058E80048B9B4F90C309A05EFD423F0030343F018
:1058F8000203A381E3E7A389206043F08003A38127
:10590800009B20616361019B5BB13046B4F90E10C6
:1059180000F01EF828B1A38923F0030343F0010324
:10592800A381A3891D43A581CFE7000038B50023D3
:10593800064D0446084611462B60FEF7D1FF431C6E
:1059480002D12B6803B1236038BD00BFAC02002030
:1059580038B50023054D044608462B60FEF76EFF58
:10596800431C02D12B6803B1236038BDAC02002070
:1059780038B50023054D044608462B6000F0D2FFD9
:10598800431C02D12B6803B1236038BDAC02002050
:10599800034610B5C9B202449342184601D100200B
:1059A80003E0047801338C42F6D110BD2DE9F843A9
:1059B80014461D468046894600F082F9224606466E
:1059C8000F462B4620462946FBF760F878B9002297
:1059D800002340464946FBF727F8D8B100220023A8
:1059E80020462946FBF720F828B10026254F3046E7
:1059F8003946BDE8F8832046294600F06DF80028AE
:105A0800F5D02046294600220023FBF717F8002886
:105A1800EDD02CE03046394600F05EF8A0B1002207
:105A2800002330463946FAF7FFFF0028DFD040460A
:105A3800494600F051F80028D9D02046294600F000
:105A48004BF80028D3D012E04046494600F044F80D
:105A58000028E4D02046294600F03EF80028DED091
:105A680032463B4630463946FBF710F820B9FFF777
:105A78005DFA22230360BAE7FFF758FA212303608F
:105A8800B5E700BF0000F03FF8B504460D4600F04A
:105A980029F8224606460F462B4620462946FAF79D
:105AA800F5FF30B92046294600220023FAF7C6FF41
:105AB80010B930463946F8BDFFF738FA00220023FE
:105AC8002121016010461946FAF770FE06460F4676
